:100000000C9446000C9465000C9465000C946500FB
:100010000C9465000C9465000C9465000C946500CC
:100020000C9465000C9465000C9465000C946500BC
:100030000C9465000C9465000C9465000C946500AC
:100040000C9465000C9465000C9465000C9465009C
:100050000C9465000C9465000C9465000C9465008C
:100060000C9465000C9465000C9465000C9465007C
:100070000C9465000C9465000C9465000C9465006C
:100080000C9465000C9465000C94650011241FBE4F
:10009000CFEFD0E4DEBFCDBF11E0A0E0B1E0E4EBF4
:1000A000F1E000E00BBF02C007900D92A231B10752
:1000B000D9F711E0A2E1B1E001C01D92A731B1076B
:1000C000E1F70E94CC000C94D8000C940000CF9370
:1000D000C82F8A3019F48DE00E9467009091C0000B
:1000E00095FFFCCFC093C60080E090E0CF910895CB
:1000F000809115019091160181309105A1F018F0C1
:10010000029729F144C080911401813039F481E0D3
:1001100090E09093160180931501089510921601B6
:1001200010921501089580911401813039F481E015
:1001300090E09093160180931501089581112BC0D2
:1001400082E090E090931601809315010895E0916C
:100150001201F0911301E25FFE4F808188B9809116
:100160001201909113018230910534F4019690931D
:1001700013018093120106C0029721F4109213011B
:10018000109212011092160110921501089510920A
:10019000160110921501089511B88FEF82B987B931
:1001A00018B880B18095809314010E947800F9CF2F
:0401B000F894FFCFF1
:1001B4000000000200000000670000000000AA55D3
:0201C4009900A0
:00000001FF
